{
    "contractName": "MyProject",
    "abi": [
        {
            "inputs": [
                {
                    "internalType": "uint256",
                    "name": "a",
                    "type": "uint256"
                },
                {
                    "internalType": "uint256",
                    "name": "b",
                    "type": "uint256"
                }
            ],
            "name": "add",
            "outputs": [
                {
                    "internalType": "uint256",
                    "name": "",
                    "type": "uint256"
                }
            ],
            "stateMutability": "pure",
            "type": "function"
        },
        {
            "inputs": [],
            "name": "getName",
            "outputs": [
                {
                    "internalType": "bytes32",
                    "name": "",
                    "type": "bytes32"
                }
            ],
            "stateMutability": "view",
            "type": "function"
        },
        {
            "inputs": [
                {
                    "internalType": "bytes32",
                    "name": "_name",
                    "type": "bytes32"
                }
            ],
            "name": "setName",
            "outputs": [],
            "stateMutability": "nonpayable",
            "type": "function"
        }
    ],
    "bytecode": "60806040526710589a1a5a99595d60c21b60005534801561001f57600080fd5b506101198061002f6000396000f3fe6080604052348015600f57600080fd5b5060043610603c5760003560e01c806317d7de7c1460415780635ac801fe146057578063771602f7146069575b600080fd5b6000545b60405190815260200160405180910390f35b606760623660046085565b600055565b005b60456074366004609d565b6000607e828460be565b9392505050565b600060208284031215609657600080fd5b5035919050565b6000806040838503121560af57600080fd5b50508035926020909101359150565b6000821982111560de57634e487b7160e01b600052601160045260246000fd5b50019056fea2646970667358221220b51f1037690a4b96c1e0ab1c7b005c70ab07bb6e64f5a164aff36256af06cf0d64736f6c63430008070033",
    "sourcePath": "c:/Users/Abhinav/Documents/GitHub/Error-in-Solidity/test.sol",
    "compiler": {
        "name": "solc",
        "version": "0.8.7+commit.e28d00a7"
    },
    "functionHashes": {
        "add(uint256,uint256)": "771602f7",
        "getName()": "17d7de7c",
        "setName(bytes32)": "5ac801fe"
    },
    "gasEstimates": {
        "creation": {
            "codeDepositCost": "56200",
            "executionCost": "22217",
            "totalCost": "78417"
        },
        "external": {
            "add(uint256,uint256)": "384",
            "getName()": "2247",
            "setName(bytes32)": "22312"
        }
    }
}